:020000040800F2
:1000000000300020B52D0008FD2D0008FD2D000852
:10001000FD2D0008FD2D0008FD2D0008000000004A
:10002000000000000000000000000000FD2D00089E
:10003000FD2D000800000000FD2D0008FD2D00082A
:1000400000000000000000000000000000000000B0
:1000500000000000000000000000000000000000A0
:100060000000000000000000000000000000000090
:100070000000000000000000000000000000000080
:100080000000000000000000000000000000000070
:100090000000000000000000000000000000000060
:1000A0000000000000000000000000000000000050
:1000B0000000000000000000000000000000000040
:1000C0000000000000000000000000000000000030
:1000D0000000000000000000000000000000000020
:1000E0000000000000000000000000000000000010
:1000F0000000000000000000000000000000000000
:1001000000000000000000000000000000000000EF
:1001100000000000000000000000000000000000DF
:1001200000000000000000000000000000000000CF
:1001300000000000000000000000000000000000BF
:1001400000000000000000000000000000000000AF
:10015000000000000000000000000000000000009F
:10016000000000000000000000000000000000008F
:10017000000000000000000000000000000000007F
:08018000000000000000000077
:100190000348044B834202D0034B03B11847704716
:1001A00064000020640000200000000005480649AB
:1001B0000B1AD90F01EBA301491002D0034B03B175
:1001C0001847704764000020640000200000000011
:1001D00010B5064C237843B9FFF7DAFF044B13B18F
:1001E0000448AFF300800123237010BD6400002099
:1001F00000000000002E000808B5044B1BB10449A4
:100200000448AFF30080BDE80840CFE700000000DD
:1002100068000020002E0008014B1868704700BFDE
:100220000000002070B50D4E0D4D761BB61006D0A7
:100230000024013455F8043B9847A642F9D1094EF1
:10024000094D761B02F0DCFDB61006D00024013407
:1002500055F8043B9847A642F9D170BD64300008B8
:10026000643000086830000864300008F0B4860785
:1002700046D0541E002A3CD0CAB2034602E014F114
:10028000FF3436D303F8012B9D07F8D1032C29D96D
:10029000CDB245EA05250F2C45EA054533D9A4F131
:1002A0001006360903F1200707EB061703F11002C9
:1002B00042E9045542E902551032BA42F8D1721CA3
:1002C00014F00C0F03EB021204F00F0613D0331FCF
:1002D00023F003030433134442F8045B9342FBD13D
:1002E00006F003042CB1C9B21C4403F8011B9C4264
:1002F000FBD1F0BC704734461346002CF3D1F8E72D
:1003000014460346C2E71A462646E0E738B5124BC4
:100310001C68A26B05461AB10023C2E9045338BD1C
:10032000182000F0B3F80246A06378B10120002144
:100330000A4B1360C2E904010B2309480949938160
:100340000023C2E90101C2E9045338BD064B074846
:10035000422100F055F800BF000000200E33CDAB65
:1003600034126DE6ECDE05009C2F0008B42F000867
:1003700038B51A4B1C68A26B92B1146918495369BD
:10038000184801FB04F100FB0313A4FB0045611CAA
:100390001D4445F1000323F00040C2E9041338BDB9
:1003A000182000F073F80246A06388B101200021F4
:1003B000C2E904010A480C4C0C4B0D490D4D146068
:1003C00053600B24034695609481C2E9041338BD41
:1003D000094B0A484E2100F013F800BF000000202E
:1003E0002DF451582D7F954C0E33CDAB34126DE664
:1003F0002E7F954CECDE05009C2F0008B42F0008E2
:1004000000B50A4C2668054685B01C46F06852B116
:10041000074B0091CDE9013206492B46224600F0F8
:1004200021F800F081FD044B1A46F2E7000000209D
:10043000E82F0008F82F0008F42F000808B513462D
:100440000022FFF7DDFF00BF0CB400B583B004ABA2
:1004500053F8042B019300F025F903B05DF804EB89
:1004600002B070470EB410B583B005AB064C53F81C
:10047000042B01930146206800F014F903B0BDE895
:10048000104003B0704700BF00000020024B01463F
:10049000186800F061B800BF00000020024B014660
:1004A000186800F003B800BF0000002000293CD00D
:1004B00038B551F8043C0C1F002BB8BFE4180546B2
:1004C00001F0B8FA234B1A682AB1A2420DD921686B
:1004D0006018824223D0626028461C60BDE8384024
:1004E00001F0AABAA34203D81A465368002BF9D1E7
:1004F00011685018A04219D024D82168601883428E
:1005000006D0636054602846BDE8384001F094BAD4
:10051000D3E900030144636021605460F3E7D2E94A
:100520000002014462602160D6E770472068014400
:10053000501883421160E6D1D3E9000301445360AF
:100540001160E0E70C232B602846BDE8384001F03D
:1005500073BA00BF8C000020F8B5CD1C25F0030550
:1005600008350C2D38BF0C25002D064633DBA9427B
:1005700031D82A4F01F05EFA3A6852B113685B1B1A
:1005800004D43FE023685B1B29D522465468002C25
:10059000F8D1796800293BD02946304600F0D2FBDB
:1005A000431C28D0C41C24F00304A04205D0211A07
:1005B000304600F0C7FB01301DD02560304601F009
:1005C0003BFA04F10B0020F00700231DC21A01D0F2
:1005D0001B1AA350F8BD0C2232600020F8BD0B2B73
:1005E00005D8A242636811D05360E7E71446236040
:1005F0001C442560E2E70C233046336001F01CFA0E
:100600000020F8BD0B2BF1D8536814463B60D5E7AA
:10061000304600F097FB7860BEE700BF8C000020FA
:100620009368013B002B93600FDA10B49469A342E6
:1006300008DB0A2906D01368581C10601970084698
:1006400010BC704710BC00F08FBB1368581C1060C2
:1006500019700846704700BF9BB1F8B513440F46A8
:1006600006465D1E541E01E0AC4208D03A4614F81E
:10067000011F3046FFF7D4FF431CF5D1F8BD002021
:10068000F8BD0020704700BF936810B5144613B939
:100690005360184610BD00F02FFE0023C4E901335B
:1006A00010BD00BF2DE9F04F9FB08B4690461C4611
:1006B000039018B18369002B00F0B780A24B9B45D3
:1006C00000F0B980A14B9B4500F0C780A04B9B4533
:1006D00004BF039BD3F80CB0BBF80C30180740F1F3
:1006E000B280DBF81030002B00F0AD8030238DF8A5
:1006F000323098F800300594002120220B918DF8BB
:100700003120944E0127002B00F08780252B00F02C
:100710001581454603E0252B00F0A38025466B7824
:100720006C1C002BF7D1B4EB080A76D04246534636
:1007300059460398FFF790FF01306ED00B9B6A7803
:1007400053440B93002A68D000234FF0FF3201344A
:100750000693CDE908338DF85B301C93079205E0D2
:10076000069A07FA03F313432C46069325460522FF
:1007700015F8011B304601F00BF8AA46831B002830
:10078000EED1069BD90644BF20228DF85B2021784C
:100790001A0744BF2B228DF85B202A2966D1059ABF
:1007A0001168043200290592C0F29D800991617898
:1007B000A51C2E2973D0684C0322204600F0E8FFC8
:1007C000002800F08680001B069B402404FA00F0FD
:1007D0000343069305F10108297860488DF830102D
:1007E000062200F0D5FF002800F083805C4B002B30
:1007F00072D005AB00935A465A4B039806A9AFF343
:1008000000808146B9F1FF3F07D00B9B4B440B930F
:1008100098F80030002B7FF479AFBBF80C305B0602
:1008200018D40B981FB0BDE8F08F00F045FD464B83
:100830009B457FF447AF039BD3F804B0BBF80C3063
:1008400018073FF54EAF5946039800F0EDFA00281F
:100850003FF44CAF4FF0FF30E4E7039BD3F808B010
:100860003AE7B4EB080A3FF46FAF5FE7A1F130025B
:10087000092A88BFA2469CD8099B01E02C46013575
:10088000297803EB830302EB4303A1F13002092A29
:10089000AA46F3D92E2904F1020509938BD19AF8BF
:1008A00001102A292FD1059B9AF802101A68079285
:1008B0000433002A05930AF103050AF1020338DB29
:1008C000254C032220469A4600F062FF00287FF460
:1008D0007AAFA84655467FE7059B073323F0070309
:1008E0000833059391E7494243F0020309910693C7
:1008F0005DE705AB00935A461A4B039806A900F032
:10090000D5F881467EE7A1F130020023092A07933A
:1009100001D915E05546697803EB830302EB4303E5
:10092000A1F13002092A05F1010AF3D90235079332
:1009300041E74FF0FF329A4607923CE7444603E70F
:10094000AA46013537E700BF602E0008402E000898
:10095000202E00082830000830300008343000080D
:10096000000000005906000810B4044C13460A4663
:100970000146206810BCFFF795BE00BF00000020B4
:100980002DE9F0470C4691460A698968DDF8208018
:100990008A42B8BF0A46C9F8002094F843100646B8
:1009A0001F4611B10132C9F80020236899065CD5B1
:1009B000D9F800200232C9F80020236813F0060F8E
:1009C00019461DD1E1688A1A002AD8BF194617DDD9
:1009D00004F1190A002505E0E368D9F800209B1A04
:1009E000AB420CDD0123524639463046C047013048
:1009F00005F10105F0D14FF0FF30BDE8F087216827
:100A000094F84330003318BF01238A060AD5E11851
:100A10005A1C302081F84300224494F8451082F893
:100A20004310023304F1430239463046C0470130D7
:100A3000E1D02368A268216903F00603042B1DD0CE
:100A40008A4226DD4FF00009521A91441A340025DB
:100A500001E04D451DDA0123224639463046C047A4
:100A6000013005F10105F4D1C5E713F0060F13D0ED
:100A700094F84330003318BF0123D3E7D9F80000BE
:100A8000E3688A42A3EB000323EAE379DCDC002B72
:100A9000DCDC0020BDE8F087E168D9F800208A1A84
:100AA000002AD8BF194693DCAAE700BF2DE9F0431E
:100AB0000C46097E85B06E29064617460C98984666
:100AC00004F1430E6DD039D9732900F0F68044D972
:100AD000752900F00481782940F01181782322687B
:100AE000DFF858C284F845300168150651F8043B18
:100AF000016040F1A180D10744BF42F02002226092
:100B0000002B00F093801022002184F843106068CD
:100B1000A0600028C0F2C880216821F00401216093
:100B2000002B40F0A380002840F0C0807546082AC2
:100B300000F0AC80AEEB0503236141E0632900F0D7
:100B4000E5801AD8002938D0582940F0D88084F898
:100B500045102268DFF8E8C1C6E76F2900F0BF80C2
:100B6000702940F0CC802268DFF8D0C142F020022A
:100B70007823226084F84530B6E7642902D06929D9
:100B800040F0BD8022680368110603F1040557D5C3
:100B9000196805600B46002959DBDFF8A4C10A2259
:100BA000B5E70368226861691D1D056015061B68AD
:100BB00002D4500600F1BD80196000237546236100
:100BC000CDF800803B4603AA21463046FFF7D8FE09
:100BD000013020D02A46236939463046C0470130CB
:100BE00019D022680398E368920719D51A1A002AC7
:100BF00016DD04F11909002504E0E36803981A1AC8
:100C0000AA420DDD01234A4639463046C04701302D
:100C100005F10105F1D14FF0FF3005B0BDE8F083DB
:100C20009842B8BF184605B0BDE8F083226822F0AC
:100C300020022260102267E7500648BF9BB25AE7A5
:100C40005106A5D5B3F9003005601946A3E76168E0
:100C5000A1602D200029C3F1000384F8430002DBCA
:100C600022F004022260DFF8D8C00A22754600E0B4
:100C70000B46B3FBF2F102FB113093421CF800006B
:100C800005F8010DF4D2082A7FF454AF2368DB077E
:100C90007FF550AF626823699A423FF74BAF30232C
:100CA00005F8013C013D45E7002BDFD19CF8003001
:100CB00084F8423004F1420539E703686268191D7F
:100CC00001601D680021284600F062FD002832D036
:100CD000401B60602061002384F8433070E7226885
:100CE000036812F0800F03F104051AD01B68056039
:100CF0006F290CBF08220A22DFF844C004E7012351
:100D000084F84210236104F14205E4E703681A689D
:100D1000191D0123016004F1420584F8422023617A
:100D2000D9E712F0400F0DBF1B6805601B880560F6
:100D3000DEE7198041E76068CCE700BF503000086B
:100D40003C30000838B5074C0023054608462360B0
:100D500002F016F8431C00D038BD2368002BFBD0EE
:100D60002B6038BD04010020F8B50D461446064638
:100D700008B1836943B3254B9C422AD0244B9C4243
:100D800029D0244B9C4208BFF468A389A269A260C1
:100D90001A0722D5236903B322686169D31AEDB219
:100DA00099422F4629DD0133A168501C0139A16009
:100DB0002060157062699A4216D0A389DB0701D5BD
:100DC0000A2D11D03846F8BD00F076FA0F4B9C4240
:100DD000D4D17468D9E7B468D7E72146304600F02B
:100DE00023F838B92369D7E72146304600F03AF9AD
:100DF0000028E7D04FF0FF37E4E72146304600F007
:100E000031F90028F6D122680123CDE7602E0008D1
:100E1000402E0008202E0008024B0A4601461868A2
:100E2000FFF7A2BF000000203B4B70B51D680646CF
:100E30000C460DB1AB69DBB1384B9C421ED0384B30
:100E40009C424AD0374B9C4208BFEC68B4F90C2056
:100E500093B2190718D5206908B313F001022CD0FA
:100E6000636900225B42A361A26060B3002070BD91
:100E7000284600F021FA294B9C42E0D16C68B4F975
:100E80000C2093B21907E6D4DD063CD5580726D4CA
:100E9000206942F00803A3819BB20028DDD103F44E
:100EA0002072B2F5007FD8D03046214600F026FCF3
:100EB000A389206913F00102D2D1990758BF626952
:100EC000A2600028D2D1B4F90C301A06CFD543F075
:100ED0004003A3814FF0FF3070BDAC68B6E7616B93
:100EE00051B104F14403994204D03046FFF7DEFAD1
:100EF000B4F90C200023636300232069636022F0AF
:100F000024022060C5E742F04002092333604FF01D
:100F1000FF30A28170BD00BF00000020602E0008DD
:100F2000402E0008202E000808B5062000F032FEF2
:100F3000012000F071FF00BF8B891A072DE9F041F5
:100F40000C46804641D44A68002A59DDE66A002EE4
:100F500053D00022D8F80050216AC8F8002013F4BA
:100F6000805251D101234046B047431C5FD0A38932
:100F7000E66A216A5F0705D56268636B801A0BB168
:100F8000236CC01A024600234046B047461C45D198
:100F9000D8F80030B4F90C20002B55D01D2B01D00F
:100FA000162B5AD123690022C4E90032616BC8F8BC
:100FB000005011B304F14403994202D04046FFF7B8
:100FC00075FA00206063BDE8F0810E69AEB10D686E
:100FD0000E6099070CBF63690023AD1BA3600AE094
:100FE0002B463246A76A216A4046B8470028A5EB3F
:100FF000000506440ADD002DF2DC0020BDE8F0818A
:101000000A6C002AA2DCF8E7606DB3E7A38943F01D
:101010004003A3814FF0FF30BDE8F0812269A3892E
:10102000226000226260DA04C0D56065BEE7D8F8AD
:101030000030002B9BD01D2B0CD0162B0AD0A3897F
:1010400043F04003A381D9E72169C4E90013D30425
:10105000ACD5EAE7C8F80050CFE742F04002A281E1
:10106000CCE700BF0B6923B310B5044682B008B1CA
:101070008369BBB1104B994212D0104B994216D0E4
:101080000F4B994208BFE168B1F90C302BB12046F3
:1010900002B0BDE81040FFF74FBF002002B010BD06
:1010A0006168F1E7019100F007F90199E2E7A168B1
:1010B000EAE70020704700BF602E0008402E0008BD
:1010C000202E000820B1054B01461868FFF7CABF63
:1010D000034B0449186800F0B9BA00BF00000020B3
:1010E0001C2E00086510000800207047014900F020
:1010F000ADBA00BF651000080020704770B54A1EE9
:10110000682505FB02F50E4605F17401FFF724FA88
:10111000044640B100210C30666005F16802216090
:10112000A060FFF7A3F8204670BD00BF1E4B70B54E
:101130001D68AB69064643B34835D5E90134013B28
:1011400005D51EE0013B5A1C04F1680419D0B4F91E
:101150000C20002AF6D10025144B6566C4E9005521
:10116000A560C4E90455A5612946E360082204F19D
:101170005C00FFF77BF8C4E90D55C4E91255204621
:1011800070BD2C682CB12546D7E7284600F010F832
:10119000D2E704213046FFF7B1FF0446286000285B
:1011A000F1D10C233360EAE71C2E00080100FFFF99
:1011B0002DE9F84F334B34491A68816290424FF061
:1011C0000003C0E91233036504BF012383610546B0
:1011D000FFF7ACFF68602846FFF7A8FFA860284625
:1011E000FFF7A4FF6E68E86000240423F3607466D0
:1011F000C6E90044B460C6E90444B461214606F17E
:101200005C000822FFF732F8DFF888B0AF68DFF83B
:1012100088A0DFF88890DFF888801C4BC6F8308003
:10122000C6E9086BC6E90AA92146FB6008227C666C
:10123000C7E90044BC60C7E90444BC6107F15C0035
:10124000FFF714F8EE68124BC7F83080C7E9087B47
:10125000C7E90AA92146F3607466C6E90044B46090
:10126000C6E90444B46106F15C000822FEF7FEFF03
:101270000123C6E9086BC6E90AA9C6F83080AB614C
:10128000BDE8F88F1C2E0008ED10000809000100D1
:1012900012000200051C00082D1C00086D1C00082F
:1012A0008D1C0008024B0349186800F0CFB900BF3D
:1012B0001C2E000865100008836903B978E77047A1
:1012C000704700BF704700BF704700BF704700BF46
:1012D000024B0349186800F093B900BF00000020DA
:1012E000E9100008024B0349186800F089B900BFF3
:1012F00000000020F91000089368002B00F0028124
:101300002DE9F04FB1F90C309BB20C46190783B0B0
:101310008246904635D522699AB313F00202D8F876
:1013200000603DD00027D4F828B0D4F820C0DFF802
:10133000CC923D464D452B463A4628BF4B4661462A
:101340005046D5B1D847002840F3D280D8F80830AD
:101350001B1A07442D1AC8F80830002B00F0B7807C
:10136000D4F820C0D4F828B04D452B463A4628BFC3
:101370004B4661465046002DE4D1D6E9007508364B
:10138000D8E721465046FFF74FFD002840F0308156
:10139000B4F90C30D8F800609BB213F00202C1D14E
:1013A00013F0010940F0B080A76820684D46002D79
:1013B00054D09A0540F1BC80AF42BB4600F2E780B2
:1013C00013F4906F2FD0D4E9041707EB4707A0EB75
:1013D000010B07EBD777681C7F105844B8423A4698
:1013E00084BF07463A465B0540F1E9801146504606
:1013F000FFF7B2F8002800F0F5805A462169019005
:1014000000F016FAA289019B22F4906242F0800259
:10141000A281A7EB0B0203EB0B0067612361206045
:10142000A2602F46AB465A46494600F09BFAA26896
:101430002368D21B5B442F46A26023600025D8F8A6
:101440000830DB1BB944C8F80830002B3FD0B4F992
:101450000C30A76820689BB2002DAAD1D6E9009570
:101460000836A4E70BF1080353E902679B460833EB
:10147000002FF9D03A460A21304600F089F90028B9
:1014800053D00130A0EB06094B46D4E90412206882
:10149000BB4228BF3B46884203D9A5681544AB42EE
:1014A00019DC9A427DDC1346A56A216A3246504611
:1014B000A847051E1CDDB9EB05096BD00120D8F843
:1014C00008305B1B2E447F1BC8F8083013BB00207C
:1014D00003B0BDE8F08F31462A4600F043FA236896
:1014E0002B44236021465046FFF7BCFD0028E2D084
:1014F000B4F90C3043F040034FF0FF30A38103B048
:10150000BDE8F08F002070473346914610461746DD
:101510004E469B46002FA5D00028B5D13A460A2159
:10152000304600F035F90028ABD17B1C9946ACE77A
:101530002369834215D36169A94212D82E4BA76A49
:101540009D4294BF2B466FF000434A4693FBF1F354
:10155000504601FB03F3216AB847071EC8DDED1BA7
:101560006DE7AF4228BF2F463A46494600F0FAF9E8
:10157000A3682268DB1B3A44A3602260002BEED1F3
:1015800021465046FFF76EFD0028E8D0B0E72F4611
:10159000AB4648E721465046FFF764FD00288ED051
:1015A000A6E71A463146019300F0DCF9019BA168D9
:1015B0002268C91A1A44A16022601D467BE7504682
:1015C00000F03CFA034600287FF423AF216950461F
:1015D000FEF76CFFB4F90C300C2223F08003CAF83C
:1015E000002087E70C23CAF80030B4F90C3081E7FB
:1015F0004FF0FF306CE700BFFEFFFF7F00FCFF7F76
:101600002DE9F04110F148071BD088460026D7E9A4
:101610000154013D0FD4A389012B05F1FF3506D9F3
:10162000B4F90E300133204601D0C04706436B1C8D
:1016300004F16804EFD13F68002FE8D13046BDE8DF
:10164000F0813E463046BDE8F08100BF2DE9F84309
:1016500010F148071FD0884606464FF00009D7E929
:101660000154013D11D4A389012B05F1FF3508D99F
:10167000B4F90E3001332146304602D0C04749EA62
:1016800000096B1C04F16804EDD13F68002FE6D11E
:101690004846BDE8F883B9464846BDE8F88300BF30
:1016A00070B50C46B1F90E10002996B016461D46CD
:1016B00013DB6A4600F016FB00280EDB019A02F4E9
:1016C0007042A2F50052B2FA82F252094FF48063DE
:1016D00000202A60336016B070BDA38900221B066B
:1016E0002A6004D540230020336016B070BD4FF44B
:1016F00080630020336016B070BD00BF8A899207F6
:101700000B4606D501F1470201211A60C3E9042105
:10171000704770B582B001AB6A460C460646FFF7CB
:10172000BFFF009905463046FEF716FFB4F90C30AE
:1017300070B11649B162019A0099206043F08003AC
:10174000A381C4E904018AB92B43A38102B070BD0F
:101750009A05FBD423F0030304F1470243F002038C
:101760000121A3812260C4E90421EFE73046B4F9E6
:101770000E1000F0CBFA10B9B4F90C30E4E7A389ED
:1017800023F0030343F001031BB2DDE7ED10000873
:1017900001F0FF01102A2BDB10F0070F08D010F822
:1017A000013B013A8B422DD010F0070F42B3F6D126
:1017B000F0B441EA012141EA014122F007047FF03F
:1017C00000070023F0E80256083C85EA010586EA96
:1017D000010685FA47F5A3FA87F586FA47F6A5FAD2
:1017E00087F68EB9EED1F0BC01F0FF0102F00702DE
:1017F00032B110F8013B013A83EA010313B1F8D189
:101800000020704701387047002D06BF3546033869
:10181000073815F0010F07D1013015F4807F02BFA2
:10182000013015F4C03F0130F0BC0138704700BFF3
:10183000844641EA000313F003036DD1403A41D3DB
:1018400051F8043B40F8043B51F8043B40F8043B9A
:1018500051F8043B40F8043B51F8043B40F8043B8A
:1018600051F8043B40F8043B51F8043B40F8043B7A
:1018700051F8043B40F8043B51F8043B40F8043B6A
:1018800051F8043B40F8043B51F8043B40F8043B5A
:1018900051F8043B40F8043B51F8043B40F8043B4A
:1018A00051F8043B40F8043B51F8043B40F8043B3A
:1018B00051F8043B40F8043B51F8043B40F8043B2A
:1018C000403ABDD2303211D351F8043B40F8043BCA
:1018D00051F8043B40F8043B51F8043B40F8043B0A
:1018E00051F8043B40F8043B103AEDD20C3205D3DA
:1018F00051F8043B40F8043B043AF9D2043208D0D2
:10190000D2071CBF11F8013B00F8013B01D30B8843
:1019100003806046704700BF082A13D38B078DD021
:1019200010F003038AD0C3F10403D21ADB071CBFF3
:1019300011F8013B00F8013B80D331F8023B20F85D
:10194000023B7BE7043AD9D3013A11F8013B00F896
:10195000013BF9D20B7803704B7843708B7883701E
:10196000604670478842F0B40DD98B1883420AD97B
:10197000841832B1224613F8014D02F8014D994204
:10198000F9D1F0BC70470F2A0ED80346541E002A26
:10199000F7D001340C44013B11F8012B03F8012F5F
:1019A000A142F9D1F0BC704740EA01039B073BD14B
:1019B000A2F110073F0901F1200606EB071601F11D
:1019C000100300F1100453F8105C44F8105C53F855
:1019D0000C5C44F80C5C53F8085C44F8085C53F861
:1019E000045C44F8045C1033B34204F11004EAD1FF
:1019F0007B1C1B0112F00C0F194402F00F0503446D
:101A000015D0043DAD0803EB850C1C1F0E4656F89F
:101A1000047B44F8047F6445F9D10135AD002B44C3
:101A2000294402F00302B1E7541E0346B1E72A46F7
:101A3000ACE700BF704700BF704700BF09B3F8B5FF
:101A40001446CAB106460D4600F088F9A04202D3FA
:101A50002F463846F8BD21463046FEF77DFD074645
:101A60000028F6D022462946FFF7E2FE30462946F6
:101A7000FEF71CFD3846F8BD2746FEF717FD384631
:101A8000F8BD1146FEF768BD10B580210446FEF78B
:101A900063FD606440B1031F00227C3043F8042FD3
:101AA0008342FBD1002010BD4FF0FF3010BD00BFBE
:101AB000436C0BB100207047E6E700BF1F2970B5EB
:101AC000054608D8436C16460C464BB153F8240023
:101AD00043F8246070BD162202604FF0FF3070BDE5
:101AE000FFF7D2FF08B96B6CF0E74FF0FF3070BD25
:101AF0001F2938B521D8426C05460C466AB152F808
:101B0000213053B1012B16D0591C10D0002520468E
:101B100042F824509847284638BD284600F070F80F
:101B2000224601462846BDE8384000F055B8162345
:101B30000360012038BD002038BD162303604FF03C
:101B4000FF3038BD1F2921D838B5436C05460C46F7
:101B500083B153F8242003EB84034AB1511C10D005
:101B6000012A0CD0002520461D609047284638BD2C
:101B7000012038BDFFF788FF28B96B6CE9E7032027
:101B800038BD022038BD4FF0FF3038BD4FF0FF3078
:101B9000704700BF024B01461868FFF7A9BF00BF9E
:101BA00000000020024B0A4601461868FFF786BF76
:101BB00000000020034B1868436C0BB100207047F5
:101BC00062E700BF00000020024B01461868FFF7E3
:101BD000B9BF00BF0000002038B50B46074C0546D2
:101BE000114618460023236000F0F6F8431C00D08D
:101BF00038BD2368002BFBD02B6038BD04010020CA
:101C000000F0DAB810B50C46B1F90E1000F0AEF8DD
:101C1000002803DB636D0344636510BDA38923F4CF
:101C20008053A38110BD00BF002070472DE9F04113
:101C30001646B1F90C201F46D3050C460546B1F9EE
:101C40000E1009D422F48052A2813B463246284627
:101C5000BDE8F04100F01EB80022022300F068F851
:101C6000B4F90C20B4F90E10ECE700BF10B50C4627
:101C7000B1F90E1000F05CF8A389421C0EBF23F4EA
:101C8000805343F480536065A38110BDB1F90E10F9
:101C900000F016B870B50D46084C114606461A46B7
:101CA00028460023236000F0AFF8431C00D070BD2D
:101CB0002368002BFBD0336070BD00BF04010020FF
:101CC00038B5074C002305460846236000F064F849
:101CD000431C00D038BD2368002BFBD02B6038BDDF
:101CE0000401002038B50B46074C0546114618463E
:101CF0000023236000F058F8431C00D038BD23684F
:101D0000002BFBD02B6038BD0401002038B5074CF8
:101D1000002305460846236000F056F8431C00D017
:101D200038BD2368002BFBD02B6038BD0401002098
:101D300070B50D46084C114606461A462846002343
:101D4000236000F051F8431C00D070BD2368002BC5
:101D5000FBD0336070BD00BF0401002051F8043C8B
:101D6000181F002BBCBF0B58C018704770B50D462C
:101D7000084C114606461A4628460023236000F008
:101D80003BF8431C00D070BD2368002BFBD03360B0
:101D900070BD00BF04010020024B58221A604FF0B2
:101DA000FF30704704010020024B58221A604FF0A8
:101DB000FF30704704010020024B58221A604FF098
:101DC000FF30704704010020024B58221A600020A7
:101DD000704700BF04010020024B58221A604FF0E8
:101DE000FF30704704010020024B58221A604FF068
:101DF000FF30704704010020024B58221A604FF058
:101E0000FF30704704010020024B58221A604FF047
:101E1000FF30704704010020FEE700BF82B00023BE
:101E2000019340F6FE72019B934201D902B07047C4
:101E3000019B01330193F6E710B50446207800F0CA
:101E40005DF914F8013F002BF8D110BDF8B5044638
:101E50000E4605462B1B9E420CDD2F4600F03CF93A
:101E600028700028FAD00A2805F10105F2D10023D4
:101E70003B70F8BD3444002304F8013CF9E700004E
:101E800010B58CB000F078F800F0B6F800F0F2F879
:101E90002D4B186802909B882C48ADF80C30FFF74A
:101EA000CBFF2B48FFF7C8FFFFF7B8FF2948FFF724
:101EB000C3FFFFF7B3FF2848FFF7BEFFFFF7AEFFF2
:101EC0002648FFF7B9FFFFF7A9FF2548FFF7B4FF42
:101ED0002448FFF7B1FF00F0F8F82348FFF7ACFF04
:101EE000202104A8FFF7B2FF00F0E8F802A904AA35
:101EF000062311F8014B12F8010B84421BD1013B60
:101F000013F0FF03F5D11948FFF796FF012000F009
:101F100011F90FE0019A01320192019A9A42F9DB1C
:101F2000FFF77CFFFFF77AFF1148FFF785FF0120DD
:101F300000F0F4F8FEE7FEF71BFA0E4B90FBF3F20D
:101F400002FB13030022E7E7962F0008802E00080B
:101F5000A32E0008C02E0008DD2E0008FA2E00086F
:101F6000172F00081A2F0008492F00087C2F00089F
:101F70006D2F0008A086010070B596B000240326DE
:101F80004FF4A0230CA80125CDE90C631094149400
:101F900000F0E4F80F23214602A8CDE90235CDE98F
:101FA0000444069400F042FB114B5A6942F40022AB
:101FB0005A615B69CDE9094603F400230D4C019396
:101FC000019B07A94FF4C0432046CDE9073500F037
:101FD000D3FB2A4620464FF4005100F091FC2A46DC
:101FE0004FF48041204600F08BFC16B070BD00BF5E
:101FF000001002400008004810B54FF4C06288B0DD
:102000000223CDE9032301210323CDE90513164C57
:1020100007230793636943F400336361636903F43F
:102020000033019303A94FF09040019B00F0A4FB03
:102030000E48DFF83CC04FF41643C0E900C300234C
:10204000C0E90233036183610C234361A36943F454
:102050008043A361A36903F480430293029B00F0D1
:10206000A3FD08B010BD00BF001002409400002086
:1020700000380140104B30B55A6942F400325A61C1
:102080005B6987B003F400330093009B4FF48054E6
:102090000123CDE901430025032301A94FF090401E
:1020A000CDE9035300F068FB2A4621464FF09040EB
:1020B00000F026FC07B030BD0010024001224FF4B2
:1020C00080514FF0904000F01BBC00224FF4805133
:1020D0004FF0904000F014BC13B5074C41F2883328
:1020E00001220DF10701204600F0DFFD0028F5D1A7
:1020F0009DF8070002B010BD9400002007B541F222
:1021000088338DF8070001220DF10701024800F025
:1021100076FD03B05DF804FB9400002028B1002296
:1021200003484FF4005100F0EBBB0122F8E700BF79
:102130000008004828B1002203484FF4804100F015
:10214000DFBB0122F8E700BF00080048024B186817
:10215000421C1A60704700BF8000002003682DE910
:10216000F743D907044611D423689A0700F1868003
:1021700023681E0700F1F48023685D0700F13B81AE
:10218000E269002A40F0CE81002021E0B7494B6887
:1021900003F00C03042B07D04B6803F00C03082B4F
:1021A00019D14B68DB0316D54FF4003393FAA3F231
:1021B000096893FAA3F3B3FA83F303F01F03012230
:1021C00002FA03F30B42CFD06368002BCCD101207D
:1021D00003B0BDE8F0836268B2F5803F24D10B689C
:1021E00043F480330B60CB6AA06823F00F030343F2
:1021F000CB624AB3FFF7AAFF4FF40036054601272A
:1022000096FAA6F30A6896FAA6F3B3FA83F303F0F4
:102210001F0307FA03F31342A6D1FFF797FF431BEF
:10222000642BEDD90320D3E70B6832B923F4803354
:102230000B600B6823F48023D4E7B2F5A02FF5D10F
:1022400043F480230B60CAE7FFF780FF4FF40036AA
:102250000546012796FAA6F30A6896FAA6F3B3FA9A
:1022600083F303F01F0307FA03F313423FF47CAF39
:10227000FFF76CFF431B642BECD9D3E77B494B681A
:1022800013F00C0F07D04B6803F00C03082B21D17F
:102290004B68DF031ED4022393FAA3F2086893FA73
:1022A000A3F3B3FA83F303F01F03012202FA03F34B
:1022B000034202D02369934289D10868F82393FA34
:1022C000A3F3B3FA83F26369934020F0F802134357
:1022D0000B604DE72269012502B395FAA5F3B3FA25
:1022E00083F303F1845303F584139B0002271D60DD
:1022F000FFF72CFF064697FAA7F30A6897FAA7F3A9
:10230000B3FA83F303F01F0305FA03F31342D4D1A6
:10231000FFF71CFF831B022BEDD983E795FAA5F38A
:10232000B3FA83F303F1845303F584139B0002276C
:102330001A60FFF70BFF064697FAA7F30A6897FAA9
:10234000A7F3B3FA83F303F01F0305FA03F3134271
:102350003FF40EAFFFF7FAFE831B022BECD961E7C7
:10236000A269424D4248012112B391FAA1F3B3FA96
:1023700083F303449B0002261960FFF7E7FE07463C
:1023800096FAA6F396FAA6F396FAA6F36A6A96FA6E
:10239000A6F3B3FA83F303F01F0301FA03F3134226
:1023A0007FF4EAAEFFF7D2FEC31B022BE8D939E770
:1023B00091FAA1F3B3FA83F303449B0002261A6057
:1023C000FFF7C4FE074696FAA6F396FAA6F396FA26
:1023D000A6F36A6A96FAA6F3B3FA83F303F01F032F
:1023E00001FA03F313423FF4C7AEFFF7AFFEC31B7E
:1023F000022BE8D916E71D49CB69D80034D4CB6944
:1024000043F08053CB61CB6903F080530193019B70
:102410000125184E3368DA052ED5E368012B3BD130
:102420000B6A43F001030B62FFF790FE022607469A
:10243000B1464FF0010896FAA6F396FAA6F3002BE0
:1024400068D00A6A99FAA9F3B3FA83F303F01F0379
:1024500008FA03F3134255D0002D3FF491AECB6937
:1024600023F08053CB618BE60025D2E700100240B9
:102470002081901000700040336843F48073336013
:10248000FFF764FE07463368DB05C6D4FFF75EFE40
:10249000C01B6428F7D9C5E633BB0B6A23F00103E0
:1024A0000B620B6A23F004030B62FFF74FFE022658
:1024B0000746B1464FF0010896FAA6F396FAA6F33E
:1024C00063B30A6A99FAA9F3B3FA83F303F01F031B
:1024D00008FA03F31342BFD0FFF738FE41F2883306
:1024E000C01B9842E8D99DE6052B0B6A03D143F047
:1024F00004030B6294E723F001030B620B6A23F0E1
:10250000040390E7FFF722FE41F28833C01B984294
:1025100091D987E696FAA6F34A6A93E796FAA6F364
:102520004A6ACFE740494B6803F00C03082B3FF49D
:102530004EAE022A4FF0807351D193FAA3F3B3FA4F
:1025400083F303F1845303F584139B0000221A6084
:10255000FFF7FCFD4FF000770646012597FAA7F339
:102560000A6897FAA7F3B3FA83F303F01F0305FA97
:1025700003F313422DD1D4E908034A68034322F43C
:10258000741213434B604FF0807393FAA3F3B3FAC2
:1025900083F303F1845303F584139B0001261D602C
:1025A000FFF7D4FD4FF00075044695FAA5F30A68CD
:1025B00095FAA5F3B3FA83F303F01F0306FA03F3C6
:1025C00013427FF4E1ADFFF7C1FD001B0228ECD9F7
:1025D00028E6FFF7BBFD831B022BBFD922E693FA47
:1025E000A3F3B3FA83F303F1845303F584139B003D
:1025F00000221A60FFF7AAFD4FF00075044601267D
:1026000095FAA5F30A6895FAA5F3B3FA83F303F0F4
:102610001F0306FA03F313423FF4B6ADFFF796FD2E
:10262000001B0228ECD9FDE500100240504AF8B525
:10263000136803F007038B4204461BD322689007FC
:1026400024D4D2072AD44A4A136803F007038B42E2
:102650007AD82068430700F1828010F0080014D077
:10266000444A2169536823F4605343EAC103536029
:1026700000200AE0136823F007030B43136013687C
:1026800003F007038B42D9D00120F8BD3948A56873
:10269000436823F0F0032B434360D2E76268354D73
:1026A000012A27D14FF4003393FAA3F0286893FA54
:1026B000A3F3B3FA83F303F01F0302FA03F3034215
:1026C000E2D06B6823F003031A436A60FFF73EFD14
:1026D0006368012B064641F288371ED16B6803F010
:1026E0000C03042BAFD0FFF731FD801BB842F5D9A6
:1026F0000320CAE7022A0CBF4FF00073022393FAAB
:10270000A3F02E6893FAA3F3B3FA83F303F01F0345
:10271000012000FA03F33342D2E7022B0FD16B689A
:1027200003F00C03082B8ED0FFF710FD801BB8427E
:10273000F5D9DDE7FFF70AFD801BB842D8D86B68F2
:1027400013F00C0FF6D17EE7136823F007030B4359
:102750001360136803F007038B4295D179E70549AD
:10276000E3684A6822F4E0621A434A6075E700BFF2
:1027700000200240001002402DE9F74FDFF87C8175
:102780005C4C00234FF001090A6832FA03F502D1CC
:1027900003B0BDE8F08F09FA03FA1AEA020200F06A
:1027A0009E804D6825F0100EBEF1020F14D14FEA45
:1027B000D30C00EB8C0C03F0070BDCF820604FEA25
:1027C0008B0B0F2707FA0BF726EA07070E6906FAA5
:1027D0000BF63E43CCF82060D0F800B04FEA430C33
:1027E000032606FA0CF72BEA070BFE4305F0030756
:1027F00007FA0CF70EF1FF3E47EA0B07BEF1010F97
:10280000076011D8876806EA070ECF6807FA0CF749
:1028100047EA0E078760476827EA0A0AC5F30017E8
:102820009F4047EA0A074760C76837408E6806FA44
:102830000CF63E43C660EE0051D5D8F8186046F05D
:102840000106C8F81860D8F8186023F0030707F1EC
:10285000804706F0010607F58037019603F0030E66
:10286000019EBE684FEA8E0E4FF00F0C0CFA0EFC64
:10287000B0F1904F26EA0C0C33D01F4EB04232D04C
:1028800006F58066B04230D006F58066B0422ED0A4
:1028900006F58066B0420CBF0426052606FA0EF641
:1028A00046EA0C06BE602668D74315F4803F0CBF8D
:1028B0003E4016432660666815F4003F0CBF3E405C
:1028C00016436660A66815F4801F0CBF3E40164391
:1028D000A660E668AD0254BF3E401643E660013391
:1028E00052E70026DAE70126D8E70226D6E70326D4
:1028F000D4E700BF0004014000040048001002407B
:102900000AB1816170478162704700000268816886
:10291000C36930B5056914682943456924F4164430
:10292000294324F00C041943214311605168C46801
:10293000056A21F44051214351609468816924F46F
:10294000306429432143916062498A4216D101F5DE
:102950005841096B01F003010139022900F2B280EC
:102960005D4CB3F5004F615C77D1082972D8DFE880
:1029700001F0ACAC2471AC717171A40057498A426A
:102980002CD101F5E631096B01F44031B1F5003F7E
:1029900000F090800BD8002900F09480B1F5803FC2
:1029A00000F09080B3F5004F54D0012015E0B1F550
:1029B000403FF7D1B3F5004F66D141684B0803F1B2
:1029C000F47303F59043B3FBF1F300209BB223F0C3
:1029D0000F01C3F342030B43D36030BD40498A4229
:1029E00010D101F5E431096B01F44021B1F5002F5C
:1029F00060D004D8002965D0B1F5802FD0E7B1F5BB
:102A0000402FD6E737498A4210D101F5E231096BF0
:102A100001F44011B1F5001F4CD004D8002951D069
:102A2000B1F5801FBCE7B1F5401FC2E72E498A42CD
:102A3000B8D101F5E031096B01F44001B1F5000FA7
:102A400038D004D800293DD0B1F5800FA8E7B1F502
:102A5000400FAEE701200023B9E70829A5D801A35C
:102A600053F821F0A12A0008A12A0008892A0008A9
:102A7000AB290008A12A0008AB290008AB290008EF
:102A8000AB290008AB2A000841684B0803F5740322
:102A900003F51053B3FBF1F39BB2D36000209CE726
:102AA00041684B0803F5E103F4E741684B0803F57F
:102AB0000043EFE7B3F5004FF7D141684B0803F54A
:102AC000803380E7B3F5004FEAD141684B0803F546
:102AD000610378E700380140182E000800440040E8
:102AE00000480040004C004000500040F8B5069FF0
:102AF000044615461E462268D36931EA03030CBF1B
:102B000001230023AB4201D0002014E07B1CF3D052
:102B100097B923681A6822F4D0721A609A6822F072
:102B200001029A60202384F8693084F86A30002317
:102B300084F868300320F8BDFFF708FB801BB8421B
:102B4000D9D9E6E737B504460021C166FFF7FEFA9A
:102B500023681B681A07054617D423681B685B07A0
:102B60000AD56FF07E43009300222B464FF480017C
:102B70002046FFF7BBFFA0B92023002084F869306E
:102B800084F8680084F86A300CE06FF07E430093AC
:102B90000A4603464FF400112046FFF7A7FF00281E
:102BA000DBD0032003B030BD10B5044628B390F845
:102BB000693003F0FF020BB980F8682022682423F3
:102BC00084F86930136823F0010313602046FFF78F
:102BD0009DFE012811D023685A6822F490425A6061
:102BE0009A6822F02A029A601A6842F0010220468E
:102BF0001A60BDE81040FFF7A5BF012010BDF7B572
:102C00001E4690F86930202B0D46044611464AD1E5
:102C1000002D46D0002A44D090F86830012B42D0D5
:102C2000012380F868300023C366212380F86930CF
:102C3000FFF78CFA0746A4F85010A4F85210B4F825
:102C4000522092B262B900963B4640212046FFF7DF
:102C50004DFF98B9202384F8693084F868000EE0AD
:102C6000B4F852200096013A92B2A4F852203B46A2
:102C7000002280212046FFF739FF10B1032003B066
:102C8000F0BDA3682268B3F5805F07D123692BB933
:102C900035F8023BC3F308031385D0E715F8013B71
:102CA000FAE70120EBE70220E9E72DE9F3411E46B0
:102CB00090F86A30202B0D46044611465CD1002D59
:102CC00058D0002A56D090F86830012B54D00123F8
:102CD00080F8683003684FF0FF321A620023C36641
:102CE000222380F86A30FFF731FAA368A4F858105D
:102CF000B3F5805F8046A4F85A1015D123698BB9CB
:102D000040F2FF13A4F85C30B4F85C70B4F85A00D9
:102D100080B280B9202384F86A3084F8680002B059
:102D2000BDE8F081FF23EDE7002BEDD12369002BF7
:102D3000F8D07F23E6E7B4F85A200096013A92B221
:102D4000A4F85A204346002220212046FFF7CEFE59
:102D5000A0B9A2682368B2F5805F06D1226922B9C2
:102D60009B8C3B4025F8023BD0E79B8C3B4005F811
:102D7000013BCBE70120D2E70220D0E70320CEE7DA
:102D800008B50A4B1968024609B90949196018685B
:102D9000694602448A4206D9FDF73EFA0C230360D5
:102DA0004FF0FF3008BD1A60FCE700BF880000202C
:102DB00008010020002103E00B4B5B584350043115
:102DC0000A480B4B42189A42F6D30A4A02E0002303
:102DD00013600432084B9A42F9D3AFF30080FDF739
:102DE00021FAFFF74DF8FEE76C30000800000020E4
:102DF000640000206400002008010020FEE70000BD
:102E0000F8B500BFF8BC08BC9E467047F8B500BFD7
:082E1000F8BC08BC9E467047A7
:102E18000408020004000020000000000000000078
:102E2800000000000000000000000000000000009A
:102E3800000000000000000000000000000000008A
:102E4800000000000000000000000000000000007A
:102E5800000000000000000000000000000000006A
:102E6800000000000000000000000000000000005A
:102E780000000000000000002A2A2A2A2A5361665E
:102E8800652D6F2D6D6174696320333030302042B9
:102E98006F6F74696E672E2E2E0A00416C69676E1B
:102EA800696E6720626974732E2E2E2E2E2E2E2E9A
:102EB8005B444F4E455D0A00436865636B696E6706
:102EC8002043657369756D20524E472E2E5B444F23
:102ED8004E455D0A004D6173717565726164696E76
:102EE8006720666C6173682E2E2E5B444F4E455DDD
:102EF8000A0044656372797074696E67206461744E
:102F080061626173652E2E5B444F4E455D0A000A6F
:102F18000A005741524E494E473A20554E415554A2
:102F2800484F52495A45442041434345535320573B
:102F3800494C4C2042452050554E49534845440A77
:102F480000506C6561736520656E746572207061F0
:102F58007373776F726420746F20636F6E74696E19
:102F680075653A200050415353574F52442046410B
:102F7800494C0A00416363657373206772616E741C
:102F880065642C2057656C636F6D65210A00683095
:102F9800707833005245454E54206D616C6C6F63F8
:102FA8002073756363656564656400002E2E2F2E9B
:102FB8002E2F2E2E2F2E2E2F2E2E2F2E2E2F2E2E24
:102FC8002F2E2E2F6E65776C69622F6C6962632FC6
:102FD8007374646C69622F72616E642E6300000002
:102FE8002C2066756E6374696F6E3A2000000000CD
:102FF800617373657274696F6E202225732220666F
:1030080061696C65643A2066696C652022257322C3
:103018002C206C696E65202564257325730A0000D1
:10302800232D302B20000000686C4C006566674536
:10303800464700003031323334353637383941426B
:1030480043444546000000003031323334353637CA
:0C305800383961626364656600000000A6
:04306400F901000866
:04306800D10100088A
:10306C000400002000000000602E0008402E000824
:10307C00202E0008000000000000000000000000EE
:10308C000000000000000000000000000000000034
:10309C000000000000000000000000000000000024
:1030AC000000000000000000000000000000000014
:1030BC000000000000000000000000000000000004
:0430CC000000000000
:0400000508002DB50D
:00000001FF
