:020000040800F2
:1000000000100020CD0F0008151000081510000882
:100010001510000815100008151000080000000059
:1000200000000000000000000000000015100008A3
:100030001510000800000000151000081510000839
:1000400000000000000000000000000000000000B0
:1000500000000000000000000000000000000000A0
:100060000000000000000000000000000000000090
:100070000000000000000000000000000000000080
:100080000000000000000000000000000000000070
:100090000000000000000000000000000000000060
:1000A0000000000000000000000000000000000050
:1000B0000000000000000000000000000000000040
:1000C0000000000000000000000000000000000030
:1000D0000000000000000000000000000000000020
:1000E0000000000000000000000000000000000010
:1000F0000000000000000000000000000000000000
:1001000000000000000000000000000000000000EF
:1001100000000000000000000000000000000000DF
:1001200000000000000000000000000000000000CF
:1001300000000000000000000000000000000000BF
:1001400000000000000000000000000000000000AF
:10015000000000000000000000000000000000009F
:10016000000000000000000000000000000000008F
:10017000000000000000000000000000000000007F
:08018000000000000000000077
:1001880010B5064C2378002B07D1054B002B02D065
:10019800044800E000BF0123237010BD04000020C4
:1001A8000000000074100008044B10B5002B03D0A9
:1001B8000349044800E000BF10BDC046000000002D
:1001C800080000207410000802B47146490849006C
:1001D800095C49008E4402BC7047C04600224308AF
:1001E8008B4274D303098B425FD3030A8B4244D3F7
:1001F800030B8B4228D3030C8B420DD3FF22090239
:1002080012BA030C8B4202D31212090265D0030BF7
:100218008B4219D300E0090AC30B8B4201D3CB03ED
:10022800C01A5241830B8B4201D38B03C01A52412F
:10023800430B8B4201D34B03C01A5241030B8B4231
:1002480001D30B03C01A5241C30A8B4201D3CB021C
:10025800C01A5241830A8B4201D38B02C01A524101
:10026800430A8B4201D34B02C01A5241030A8B4204
:1002780001D30B02C01A5241CDD2C3098B4201D31C
:10028800CB01C01A524183098B4201D38B01C01A9A
:10029800524143098B4201D34B01C01A5241030911
:1002A8008B4201D30B01C01A5241C3088B4201D3C0
:1002B800CB00C01A524183088B4201D38B00C01A6D
:1002C800524143088B4201D34B00C01A5241411A94
:1002D80000D20146524110467047FFE701B50020A1
:1002E80000F006F802BDC0460029F7D076E770474F
:1002F8007047C046002382B0054A0193019B934290
:1003080001D902B07047019B01330193F6E7C0465B
:10031800FE0F000010B504002078013400F052F9F7
:100328002378002BF8D110BDF8B504000E000500A5
:100338002B1B9E4204DC0023A419013C23700AE015
:1003480000F028F92F0028700028F9D001350A2874
:10035800EED100233B70F8BD30B58DB002AC00F093
:100368005DF800F087F800F0C5F805222149200063
:1003780000F072FE2048FFF7CDFF2048FFF7CAFFC4
:10038800FFF7B8FF1E48FFF7C5FFFFF7B3FF1D488B
:10039800FFF7C0FFFFF7AEFF1B48FFF7BBFF1B4887
:1003A800FFF7B8FF04AD00F0EDF81948FFF7B2FF0A
:1003B80020212800FFF7B8FF00F0DCF80023E15CFB
:1003C800EA5C914214D10133052BF8D11148FFF7AB
:1003D800A1FF0CE0019B01330193019B002BF9DD88
:1003E800FFF788FFFFF786FF0B48FFF793FFFEE74D
:1003F8000023F1E7811100088F100008B1100008F0
:10040800CF100008ED1000080B1100080E110008AD
:100418003E1100086611000856110008F0B5902733
:10042800002401250326042397B0FF05380005A9F9
:10043800059306950794089600F046FB102305A936
:100448003800059306950794089600F03DFB0523B0
:100458000AA80B930A960D94139400F0C9F8072381
:10046800210001A8019302950394049400F0A2FAD4
:1004780017B0F0BD802170B51B4C8902626988B045
:100488000A436261636990200B400193019BC0237A
:10049800DB00012503260393022303A9C005049367
:1004A80005950795069600F00FFB8021A269C90102
:1004B8000A43A261A3690D480B400293029B236B78
:1004C800B3431D430A4B2563036096231B02436015
:1004D80000238360C360036183610C33436100F0D0
:1004E8005DFC08B070BDC04600100240200000202E
:1004F8000038014080201E4AF0B55169800201434E
:100508005161536987B00340902400930125002668
:100518000327009B8023E405200001A9019302958D
:100528000396049700F0D0FA1023200001A9019344
:1005380002950396049700F0C7FA0423200001A946
:10054800019302950396049700F0BEFA320020004A
:10055800802100F06BFB2A002000102100F066FBD0
:100568002A000421200000F061FB07B0F0BDC0465E
:1005780000100240902010B501228021C00500F033
:1005880055FB10BD902010B500228021C00500F059
:100598004DFB10BD37B508256B46DC1D0122322303
:1005A8002100064800F02CFC002801D120783EBD2F
:1005B800034A136A2B431362EEE7C046200000206B
:1005C8000038014007B56B46D91D08700122024B5F
:1005D800024800F08DFC07BD8813000020000020B1
:1005E800024B1868421C1A607047C04690000020F1
:1005F800F0B50368040085B0DB072FD423689B0798
:1006080000D581E023681B0700D5BCE023685B07A1
:1006180000D5DFE02368DB061AD562690423B54DEF
:10062800012A00D04AE1696B02270B436B636B6BAD
:100638001A436A63FFF7D4FF06006B6B3B4200D195
:1006480035E1F8216A6BA3698A43DB0013436B63C6
:10065800216A002900D059E1002013E00C21A54DA2
:100668006A680A40042A06D06B680B40082B0BD135
:100678006B68DB0308D52B689B03BFD56368002B29
:10068800BCD1012005B0F0BD6368012B13D18023D4
:100698002A685B0213432B60FFF7A2FF802706003E
:1006A800BF022B683B42A9D1FFF79AFF801B642841
:1006B800F7D90320E6E7002B16D12B688E4A80274E
:1006C80013402B602B688D4ABF0213402B60FFF745
:1006D80087FF06002B683B4200D18FE7FFF780FFBA
:1006E800801B6428F6D9E4E7052B05D180232A6806
:1006F800DB0213432B60CAE72B687F4A13402B6049
:100708002B687E4A1340C6E70C227A4D6B68134269
:1007180006D06B681340082B10D16B68DB030DD42F
:100728002B689B0702D5E368012BAAD1F8212A6818
:1007380023698A43DB0013432B6063E7E2680123E4
:10074800002A0FD02A68022713432B60FFF748FFBF
:1007580006002B683B42E9D1FFF742FF801B0228C5
:10076800F7D9A6E72A6802279A432A60FFF738FFD5
:1007780006002B683B4200D144E7FFF731FF801B9E
:100788000228F6D995E7E26901235A4D002A10D0CC
:100798006A6A022713436B62FFF722FF06006B6A3F
:1007A8003B4200D032E7FFF71BFF801B0228F6D937
:1007B8007FE76A6A02279A436A62FFF711FF060019
:1007C8006B6A3B4200D121E7FFF70AFF801B022832
:1007D800F6D96EE780220021464D5205EB6900915B
:1007E800134208D1EB691343EB61EB6913400393A0
:1007F800039B012300938027414E7F0033683B42CF
:1008080006D0A368012B13D12A6A13432B6230E068
:1008180033683B433360FFF7E3FE019033683B42A4
:10082800EFD1FFF7DDFE019BC01A6428F6D940E737
:100838000122002B14D12B6A022793432B622B6AC7
:10084800033293432B62FFF7CBFE06002B6A3B4231
:1008580016D0FFF7C5FE2B4B801B9842F6D928E728
:10086800052B16D1296A013B0B432B622B6A1A43CD
:100878002A62FFF7B5FE022706002B6A3B420FD01B
:10088800009B012B00D0C5E6EB691F4A1340EB61C2
:10089800C0E62B6A934304222B622B6A9343B5E785
:1008A800FFF79EFE174B801B9842E6D901E7FFF73A
:1008B80097FE801B022800D8BFE6FAE6053203D16E
:1008C8006A6B9A436A63BCE66A6B02271343012288
:1008D8006B636B6B93436B63FFF782FE06006B6B76
:1008E8003B4200D1B4E6FFF77BFE801B0228F6D915
:1008F800DFE6C04600100240FFFFFEFFFFFFFBFFE0
:100908000070004088130000FFFFFFEF0C22264D07
:1009180001206B681340082B00D1B3E62B68234AEB
:1009280013402B6002292FD1FFF75AFE80270600BB
:10093800BF042B683B4221D10F22EB6A80269343E8
:10094800E26AB6041343EB62616AA36A6A680B43FE
:1009580017490A4013436B6080232A685B041343DA
:100968002B60FFF73DFE04002B68334200D073E68E
:10097800FFF736FE001B0228F6D99AE6FFF730FE8D
:10098800801B0228D5D994E6FFF72AFE80260400AA
:10099800B6042B68334200D15EE6FFF721FE001B48
:1009A8000228F6D985E6C04600100240FFFFFFFE88
:1009B800FFFFC2FFF7B501223E4D04002B680F0070
:1009C80013408B4212D32268930719D4D3071FD43C
:1009D80001232A681A40BA425DD823685B0761D4AC
:1009E800E122354BD20300201A6008E02B689343BC
:1009F8000B432B602B6813408B42E4D00120FEBDD3
:100A0800F0202E494B688343A06803434B60DDE721
:100A18002A4E62683368012A1AD19B03EED5032156
:100A280073688B4313437360FFF7DAFD63680190C3
:100A3800012B15D10C2273681340042BC8D0FFF783
:100A4800CFFD019BC01A1E4B9842F3D90320D6E76D
:100A5800022A02D19B01E2D4D0E79B07DFD4CDE77D
:100A6800022B12D00C2273681342B1D0FFF7B8FDE5
:100A7800019BC01A124B9842F4D9E7E7FFF7B0FD83
:100A8800019BC01A0E4B9842E0D80C2273681340A1
:100A9800082BF3D19CE72A689A432A602A681A42ED
:100AA8009BD0ABE7054A074953680B40E1680B4305
:100AB800536095E70020024000000020001002402B
:100AC80088130000FFF8FFFF0023F0B587B00A681D
:100AD8001400DC4001D107B0F0BD012614009E408F
:100AE80034400294324200D192E04A6815000192E3
:100AF800102295430395022D0DD107240F251C4084
:100B0800A400A540DA0892008218176AAF430D695D
:100B1800A5402F43176203225C00A240D543AC4690
:100B2800032507689743019A2A40A240039D3A4348
:100B3800013D0260012D0FD8624685681540CA68DC
:100B4800A2402A4382604568019AB54301261209EA
:100B580032409A402A4342606546C2682A408D68FE
:100B6800A54080242A43C260019A640522424FD0DE
:100B78000125284A90279469FF052C4394619269BE
:100B88009C082A400592059A234AA400A4180F221B
:100B980002351D40AD00AA40A66896430022B8421F
:100BA8000CD01E4F0132B84208D01D4F0132B84256
:100BB80004D01C4F0132B84200D00232AA4032435E
:100BC800A260194A029C1668029D019FE4433543BE
:100BD800FF0301D43500254015605668029D019F2A
:100BE8003543BF0301D43500254055609668029D02
:100BF800019F3543FF0201D4350025409560D56833
:100C0800029E019F2E43BF0201D425402E00D660CC
:100C180001335CE700100240000001400004004876
:100C280000080048000C004800040140002A01D0D8
:100C3800816170478162FCE7F8B504000D00170078
:100C48001E002268D3692B405B1B59424B41BB42B3
:100C580001D0002018E0069B0133F3D0069B002B3F
:100C680013D123680C491A6803200A401A609A684D
:100C7800A331FF318A439A6022002023693213701E
:100C88005370002368342370F8BDFFF7A9FC069B56
:100C9800801B9842D5D9E4E75FFEFFFF030070B5DB
:100CA8009A681D6904682A435D69C1692A432068F6
:100CB800334D0A43284002432260626831481D6A66
:100CC8000240D868024362609A69A0682A432E4DA0
:100CD8002840024303208025A2602C4A2D02126B73
:100CE8000240013A022A43D82948805CA94220D10F
:100CF80008281BD8FFF768FA3E1A051A3E1A1A1A6E
:100D080015005968234B4808C018FFF767FA83B2E3
:100D1800002019000F221B0791435B0F0B43E36070
:100D280070BD5968802348085B02EDE70120002365
:100D3800EFE708281AD8FFF747FA0F1905190F190E
:100D4800191914005968144B4808C018FFF746FAD7
:100D580080B2E0600020E3E75968E1234808DB033C
:100D6800F3E75968802348081B02EEE70120D7E71C
:100D7800A942F1D15968E12348081B04C4E7C046D9
:100D8800F369FFFFFFCFFFFFFFF4FFFF00100240F2
:100D98008C1000080048E8010024F40070B5041E17
:100DA80001D1012070BD050069352B78DAB2002B1E
:100DB80002D1030068331A70242301262B7022689D
:100DC80020001368B3431360FFF768FFB042E8D010
:100DD80023680A495A6800200A4008215A609A681C
:100DE8008A439A601A68164322001E602023E06630
:100DF8006A3268342B7013702070D3E7FFF7FFFF57
:100E0800F0B585B0039303006A3317001A7804001D
:100E18000D000220202A39D10138002936D0002FB0
:100E280034D08022A1685201914204D12269002A5B
:100E380001D105422AD12200683211780220012905
:100E480024D0012111700022E26622321A70FFF7C5
:100E5800C7FB23008021A26858331F805F800600EB
:100E6800490104338A4215D12269002A10D11F4A48
:100E78001A801F8822005A32138898B2002B10D18A
:100E8800230020226A3368341A70207005B0F0BD40
:100E9800FF22EDE7002AECD12269002AF8D07F2250
:100EA800E6E713882021013B9BB21380039B0022B5
:100EB800009320003300FFF7BFFE002813D1A2687B
:100EC8002368110080225201914207D12269002A29
:100ED80004D19B8C3B402B800235CBE79B8C3B405D
:100EE8002B700135C6E70320D0E7C046FF0100009C
:100EF800F0B585B003930300693302931B780400AF
:100F08000D0016000220202B48D10138002945D0B9
:100F1800002A43D08023A2685B019A4204D1236946
:100F2800002B01D1014239D1230068331A780220FD
:100F3800012A33D001221A700023029AE366213372
:100F48001370FFF74DFB230050331E805E80802610
:100F580007007601210052310B889AB2002B0ED17E
:100F6800039B4021009320003B00FFF765FE00280B
:100F780013D12023029A6834137020700EE00B8876
:100F88000022013B9BB20B80039B80210093200031
:100F98003B00FFF751FE002802D0032005B0F0BD4A
:100FA800A3682268B34208D12369002B05D12B8896
:100FB8000235DB05DB0D1385CCE72B78013513856E
:100FC800C8E70000002103E00B4B5B584350043195
:100FD8000A480B4B42189A42F6D30A4A02E0002309
:100FE80013600432084B9A42F9D300E000BF00F0C6
:100FF8000FF8FFF7B1F9FEE7901100080000002094
:10100800040000200400002094000020FEE70000F7
:1010180070B500260C4D0D4C641BA410A64209D1D6
:10102800002600F023F80A4D0A4C641BA410A642BF
:1010380005D170BDB300EB5898470136EEE7B30011
:10104800EB5898470136F2E7881100088811000824
:10105800881100088C110008002310B59A4200D1AD
:1010680010BDCC5CC4540133F8E70000F8B5C046A5
:10107800F8BC08BC9E467047F8B5C046F8BC08BC2A
:041088009E467047C9
:10108C000408022A2A20536166652D6F2D6D617448
:10109C006963203330303020426F6F74696E672E75
:1010AC002E2E0D0A00416C69676E696E67206269AD
:1010BC0074732E2E2E2E2E2E2E2E5B444F4E455DEF
:1010CC000D0A00436865636B696E6720436573693D
:1010DC00756D20524E472E2E5B444F4E455D0D0ACA
:1010EC00004D6173717565726164696E6720666C21
:1010FC006173682E2E2E5B444F4E455D0D0A000A1F
:10110C000A005741524E494E473A20554E415554CC
:10111C00484F52495A454420414343455353205765
:10112C00494C4C2042452050554E49534845440D9E
:10113C000A00506C6561736520656E746572207071
:10114C00617373776F72643A200050415353574F59
:10115C005244204641494C0D0A0041636365737348
:10116C00206772616E7465642C2057656C636F6DBB
:0C117C0065210D0A006563656400000039
:04118800B1010008A9
:04118C0089010008CD
:0411900000127A00CF
:0400000508000FCD13
:00000001FF
